:020000040000FA
:0600000075EF13F0120081
:020008001200E4
:020018001200D4
:06002A0002001227000095
:10003000CA01000011000000102700006E0000003F
:0400400002000000BA
:0C004400D9CFE6FFE1CFD9FF060EE12680
:100050000001635105E16CEC09F0C9EC09F01DD217
:10006000060E0101FC5D01E218D26D50020B01E0A9
:1000700014D2400EE66E080EE66E010EE66E6AECD5
:1000800010F0E552E552E552000901E196D18C925B
:10009000D58E0101D26B01013C51040A01E108D166
:1000A000070A01E182D0010A2DE0030A04E0010AF7
:1000B00001E1FED0FDD0890EE66E010EE66E0D0E5A
:1000C000E66EE66A1FDBE552E552E552E552890E1F
:1000D000E66E010EE66E0D0EE66EE668DDEC0BF0E8
:1000E000E552E552E552E552DF6E400EDF5C01E17C
:1000F000D1D0420EDF5C01E1D3D0440EDF5C01E0E1
:10010000D7D0D4D0890EE66E010EE66E090EE66EEB
:10011000E66AF8DAE552E552E552E552890EE66EF6
:10012000010EE66E090EE66EE668DDEC0BF0E552B8
:10013000E552E552E552DF6E400EDF5C03E18C9E36
:100140008C8E0BD0420EDF5C03E18C9C8C8C05D036
:10015000440EDF5C02E18C9A8C8A890EE66E010EF9
:10016000E66E160EE66E0D0EE66ECCDAE552E55240
:10017000E552E552890EE66E010EE66E160EE66E4B
:10018000E668DDEC0BF0E552E552E552E552DF6E34
:10019000400EDF5C01E17ED0420EDF5C01E180D0E9
:1001A000440EDF5C01E084D081D0890EE66E010E42
:1001B000E66E090EE66EE66AA5DAE552E552E5520C
:1001C000E552890EE66E010EE66E090EE66EE668F1
:1001D000DDEC0BF0E552E552E552E552DF6E400EE4
:1001E000DF5C03E18C9E8C8E0BD0420EDF5C03E162
:1001F0008C9C8C8C05D0440EDF5C02E18C9A8C8A3E
:10020000890EE66E010EE66E160EE66E0D0EE66EB9
:1002100079DAE552E552E552E552890EE66E010EB5
:10022000E66E160EE66EE668DDEC0BF0E552E55282
:10023000E552E552DF6E400EDF5C03E18C9E8C8E52
:100240000BD0420EDF5C03E18C9C8C8C05D0440EFD
:10025000DF5C02E18C9A8C8A890EE66E010EE66EF6
:10026000230EE66E1A0EE66E4DDAE552E552E552C1
:10027000E552890EE66E010EE66E230EE66EE66826
:10028000DDEC0BF0E552E552E552E552DF6E400E33
:10029000DF5C03E18C9E8C8E0BD0420EDF5C03E1B1
:1002A0008C9C8C8C05D0440EDF5C02E18C9A8C8A8D
:1002B00001018851425D28E042C1E6FF0F0EE66E63
:1002C000E7EC0AF0E552E55242C1E6FF0F0EE66E9A
:1002D000EEEC09F0E552E552800EE66EE66A6AEC55
:1002E0000AF0E552E55242C188F10E0EE66E3DEC91
:1002F0000BF0E5520101816FE00E8115026EE00EF8
:100300004215025CF2E10189445157E04451D00AA0
:1003100040E0700A39E0200A31E0820A18E0010A60
:1003200006E0C30A4AE1D0EC0AF07ADA46D001BB13
:100330000BD0030E846F45C185F145C1E6FF3DEC4E
:100340000BF0E5520101866F0189018B36D046C161
:10035000E6FF45C1E6FFE7EC0AF0E552E55246C18B
:10036000E6FF45C1E6FFEEEC09F0E552E552800EEE
:10037000E66EE66A6AEC0AF0E55204D046C1E6FF92
:1003800044EC0CF0E55219D08EEC0CF00101866FB4
:1003900013D0050EE66EE66ACA0EE66E010EE66E34
:1003A000830EE66E010EE66E81EC12F0026E060E12
:1003B000E15E02500101886B018979D8030A0CE0E3
:1003C000010A1FE0030A32E1A90EE66E010EE66E95
:1003D0000D0EE66E900E1CD0A90EE66E010EE66EB6
:1003E0000D0EE66E900EE66E9EEC0BF0E552E552B9
:1003F000E552E552A90EE66E010EE66E79D8E55299
:10040000E552A90EE66E010EE66E0D0EE66E940E36
:10041000E66E9EEC0BF0E552E552E552E552A90E70
:10042000E66E010EE66E64D8E552E552F2A40CD0F9
:100430000101D12BD15107E18C808C82D59EFE0E1B
:10044000D16F010ED26FF29401010151100B01E046
:10045000010E026E0151060BE84202101EE004017B
:100460000CBF1BD0400EE66E480EE66E010EE66E27
:1004700030EC10F0E552E552E5520101486B019372
:1004800001950199019B8C90D58E0101D26B0101E0
:10049000846B0101D86901017C6B060EE15C02E20C
:1004A000E16AE552E16EE552E7CFD9FF12000101A2
:1004B0000193019581BE0BD00151060BE842010961
:1004C000030BF36EF346F90E0115F310016F81BCB7
:1004D0000BD00151060BE8420209030BF36EF34601
:1004E000F90E0115F310016F0151060BE8421200DD
:1004F000D9CFE6FFE1CFD9FF060EE126050EDB6A74
:10050000FF0E0101D85D01E1D86B010EE76EFD0E13
:10051000DBCFE9FFFE0EDBCFEAFFE750E926000E56
:10052000EA22EF50080B08E0200EF36E020EF3CF24
:10053000DBFF040EF36E04D0020EDB6AF36E040ED2
:10054000F3CFDBFF020EDB5010E0040EE76EFD0E72
:10055000DBCFE9FFFE0EDBCFEAFFE750E926000E16
:10056000EA22EF50400B10E113D0010EE76EFD0EB2
:10057000DBCFE9FFFE0EDBCFEAFFE750E926000EF6
:10058000EA22EF50100B04E0DE52100EDD6E02D0B6
:10059000010EDB6A040EE76EFD0EDBCFE9FFFE0EF7
:1005A000DBCFEAFFE750E926000EEA22EF500F0BFF
:1005B000E76E030EE7CFDBFF340ED880D855026E0E
:1005C000040EDB50D880025401E392D0030EDBCF3F
:1005D000E6FF010EDBCFE6FF020EDB50800FE55297
:1005E000E724E552E724E66ED8C1E9FFEA6AE9BEEE
:1005F000EA68480EE926010EEA22E552E750EF6E5E
:10060000D82BDF6A040EDB50DF5C20E2050EDB50E6
:10061000E76EFD0EDBCFE9FFFE0EDBCFEAFFE75012
:10062000E926000EEA22EF50E66ED8C1E9FFEA6A39
:10063000E9BEEA68480EE926010EEA22E552E750D3
:10064000EF6ED82B050EDB2ADF2ADCD7020EDB503B
:1006500007E1050EDB50020FE76E050EE7CFDBFF6B
:10066000050EDB2A010EDB5025E1DF6A030EDB50AD
:10067000DF5C20E2050EDB50E76EFD0EDBCFE9FF0D
:10068000FE0EDBCFEAFFE750E926000EEA22EF502C
:10069000E66ED8C1E9FFEA6AE9BEEA68480EE926D3
:1006A000010EEA22E552E750EF6ED82B050EDB2A49
:1006B000DF2ADCD7D8C1E9FFEA6AE9BEEA68480E5A
:1006C000E926010EEA22EF6AA90EE66E010EE66E39
:1006D000030EE66E1C0EE66E58EC0BF0E552E5528A
:1006E000E552E552A9C17FF1AAC180F1ABC181F108
:1006F000060EE15C02E2E16AE552E16EE552E7CF07
:10070000D9FF1200D9CFE6FFE1CFD9FFE652FE0EA6
:10071000DB50DF6EFD0EDBCFE6FFFE0EDB50E55259
:10072000E724DF5C1BE2DF50EA6A080FE96E010E86
:10073000EA22EF50E66EFE0EDB50DF5CE76EFB0E4A
:10074000DBCFE9FFFC0EDBCFEAFFE750E926000E26
:10075000EA22E552E750EF6EDF2ADCD7E552E55298
:10076000E7CFD9FF1200D9CFE6FFE1CFD9FFE6529C
:10077000928292848A889398E66AE66A010EE66E0F
:10078000CDEC12F0E552E552E55293809392DF6A88
:10079000400EDF5C10E2DF50EA6A080FE96E010EDE
:1007A000EA22EF6ADF50EA6A480FE96E010EEA2298
:1007B000EF6ADF2AEDD7D76AD66AD596D584D58277
:1007C000D580D59AF168F09EF092F0880F0EC16E38
:1007D000070EB46E898A8D808D828D84938C938E62
:1007E000929A9690969296940101019D8C828C80AB
:1007F0009590959292888C8E959E8C8C959C8C8AE7
:10080000959A94908B90019301950199019B08D83A
:10081000D08EF28CF28EE552E552E7CFD9FF12006E
:10082000D9CFE6FFE1CFD9FF020EE126D0EC0AF0E6
:10083000800EE66EE66A9BEC0AF0E552E552E76E42
:10084000010EE7CFDBFFDF6ADF50026E036AD8904C
:10085000035004E6FA0E025C000E035802E2DF2A9F
:10086000F3D7010EDB5007E00F0EE66E34EC0AF012
:10087000E5520101DC6F0101DC8FDC9DDC9BDC9724
:10088000DC99DC85010EDB5008E1DCC1E6FF0F0ED0
:10089000E66EEEEC09F0E552E552DCC1E6FF0F0E24
:1008A000E66EE7EC0AF0E552E5520E0EE66E3DEC20
:1008B0000BF0E552E00B800808E0DCC1E6FF0F0E0C
:1008C000E66EE7EC0AF0E552E5520001635123E0E1
:1008D000010EDB5007E02B0EE66E34EC0AF0E55219
:1008E0000101E06F0101E081E083E085E087E089BC
:1008F000010EDB5008E1E0C1E6FF2B0EE66EEEECE8
:1009000009F0E552E552E0C1E6FF2B0EE66EE7EC9A
:100910000AF0E552E5520101E385E381E387E383D1
:10092000E3C1E6FF0C0EE66EE7EC0AF0E552E55295
:100930000101070EE46FE4C1E6FF0D0EE66EE7EC81
:100940000AF0E552E552010EDB501BE0600EE66E48
:1009500034EC0AF0E5520101896FE66E600EE66E36
:10096000E7EC0AF0E552E552700EE66E34EC0AF060
:10097000E5520101896FE66E700EE66EE7EC0AF053
:1009800020D00101896B89C1E6FF600EE66EE7ECBD
:100990000AF0E552E55289C1E6FF700EE66EE7EC1B
:1009A0000AF0E552E55289C1E6FF600EE66EEEEC14
:1009B00009F0E552E55289C1E6FF700EE66EEEECF5
:1009C00009F0E552E5520101896B8A6B8B6B8C6BE8
:1009D000010EDB501DE0200EE66E34EC0AF0E5520D
:1009E0000101896F210EE66E34EC0AF0E552010137
:1009F0008A6F220EE66E34EC0AF0E55201018B6F2D
:100A0000230EE66E34EC0AF0E55201018C6F0ED035
:100A1000040EE66E890EE66E010EE66E200EE66EA0
:100A20000EEC0AF0E552E552E552E552890EE66E0B
:100A3000010EE66E040EE66E200EE66E08EC0BF07C
:100A4000E552E552E552E5520101896B8A6B8B6BE9
:100A50008C6B010EDB501DE0240EE66E34EC0AF0C8
:100A6000E5520101896F250EE66E34EC0AF0E5527D
:100A700001018A6F260EE66E34EC0AF0E5520101A0
:100A80008B6F270EE66E34EC0AF0E55201018C6F95
:100A90000ED0040EE66E890EE66E010EE66E240E92
:100AA000E66E0EEC0AF0E552E552E552E552890E8B
:100AB000E66E010EE66E040EE66E240EE66E08EC9F
:100AC0000BF0E552E552E552E5520101896B8A6B64
:100AD0008B6B8C6B010EDB501CE0E66A34EC0AF089
:100AE000E5520101896F010EE66E34EC0AF0E55221
:100AF00001018A6F020EE66E34EC0AF0E552010144
:100B00008B6F030EE66E34EC0AF0E55201018C6F38
:100B10000DD0040EE66E890EE66E010EE66EE66AF4
:100B20000EEC0AF0E552E552E552E552890EE66E0A
:100B3000010EE66E040EE66EE66A08EC0BF0E55276
:100B4000E552E552E5520101896B8A6B8B6B8C6B28
:100B5000010EDB501DE0040EE66E34EC0AF0E552A7
:100B60000101896F050EE66E34EC0AF0E5520101D1
:100B70008A6F060EE66E34EC0AF0E55201018B6FC7
:100B8000070EE66E34EC0AF0E55201018C6F0ED0D0
:100B9000040EE66E890EE66E010EE66E040EE66E3B
:100BA0000EEC0AF0E552E552E552E552890EE66E8A
:100BB000010EE66E040EE66EE66E08EC0BF0E552F2
:100BC000E552E552E5520101896B080E8A6F8B6B85
:100BD0008C6B010EDB501DE0080EE66E34EC0AF063
:100BE000E5520101896F090EE66E34EC0AF0E55218
:100BF00001018A6F0A0EE66E34EC0AF0E55201013B
:100C00008B6F0B0EE66E34EC0AF0E55201018C6F2F
:100C10000ED0040EE66E890EE66E010EE66E080E2C
:100C2000E66E0EEC0AF0E552E552E552E552890E09
:100C3000E66E010EE66E040EE66E080EE66E08EC39
:100C40000BF0E552E552E552E5520101896B080EC1
:100C50008A6F8B6B8C6B010EDB501BE0100EE66E07
:100C600034EC0AF0E5520101896F110EE66E34ECA6
:100C70000AF0E55201018A6F120EE66EF5DBE552CD
:100C800001018B6F130EE66EEFDBE55201018C6FF5
:100C90000DD0040EE66E890EE66E010EE66E100EA5
:100CA000E66EBCDBE552E552E552E552890EE66E92
:100CB000010EE66E040EE66E100EE66E08EC0BF00A
:100CC000E552E552E552E5520101896B080E8A6F43
:100CD0008B6B8C6B010EDB5019E0140EE66EC4DBDF
:100CE000E5520101896F150EE66EBEDBE55201018A
:100CF0008A6F160EE66EB8DBE55201018B6F170E98
:100D0000E66EB2DBE55201018C6F0DD0040EE66E8B
:100D1000890EE66E010EE66E140EE66E7FDBE5527E
:100D2000E552E552E552890EE66E010EE66E040EBE
:100D3000E66E140EE66E08EC0BF0E552E552E55255
:100D4000E5520101896B080E8A6F8B6B8C6B010E6B
:100D5000DB5019E0180EE66E87DBE5520101896F62
:100D6000190EE66E81DBE55201018A6F1A0EE66EFE
:100D70007BDBE55201018B6F1B0EE66E75DBE552E6
:100D800001018C6F0DD0040EE66E890EE66E010E29
:100D9000E66E180EE66E42DBE552E552E552E5528C
:100DA000890EE66E010EE66E040EE66E180EE66E15
:100DB00008EC0BF0E552E552E552E5520101A30EB5
:100DC000896F090E8A6F120E8B6F340E8C6F040EB2
:100DD0008D6F8E6B010E8F6F020E906F030E916FF1
:100DE000040E926F050E936F060E946F070E956FAB
:100DF000010EDB504FE0310EE66E36DBE5520101AD
:100E0000896F320EE66E30DBE55201018A6F330ED8
:100E1000E66E2ADBE55201018B6F340EE66E24DBB1
:100E2000E55201018C6F350EE66E1EDBE5520101C5
:100E30008D6F360EE66E18DBE55201018E6F370EB0
:100E4000E66E12DBE55201018F6F380EE66E0CDBA9
:100E5000E5520101906F390EE66E06DBE5520101A5
:100E6000916F3A0EE66E00DBE5520101926F3B0E88
:100E7000E66EFADAE5520101936F3C0EE66EF4DAA3
:100E8000E5520101946F3D0EE66EEEDAE552010186
:100E9000956F0DD00D0EE66E890EE66E010EE66EB4
:100EA000310EE66EBBDAE552E552E552E552890EA7
:100EB000E66E010EE66E0D0EE66E400EE66EDDECA1
:100EC0000BF0E552E552E552E5520101220E896F21
:100ED0008A6B640E8B6F680E8C6F020E8D6F8E6B3B
:100EE000110E8F6F220E906F330E916F440E926F22
:100EF000550E936F660E946F770E956F010EDB5053
:100F00004FE0410EE66EB0DAE5520101896F420E04
:100F1000E66EAADAE55201018A6F430EE66EA4DAA4
:100F2000E55201018B6F440EE66E9EDAE552010137
:100F30008C6F450EE66E98DAE55201018D6F460E14
:100F4000E66E92DAE55201018E6F470EE66E8CDA9C
:100F5000E55201018F6F480EE66E86DAE552010117
:100F6000906F490EE66E80DAE5520101916F4A0EEC
:100F7000E66E7ADAE5520101926F4B0EE66E74DA94
:100F8000E5520101936F4C0EE66E6EDAE5520101F7
:100F9000946F4D0EE66E68DAE5520101956F0DD043
:100FA0000D0EE66E890EE66E010EE66E410EE66EE1
:100FB00035DAE552E552E552E552890EE66E010E4C
:100FC000E66E0D0EE66E420EE66EDDEC0BF0E552BF
:100FD000E552E552E5520101AA0E896F030E8A6FB0
:100FE000330E8B6F8C6F080E8D6FAA0E8E6FBB0E3B
:100FF0008F6FCC0E906FDD0E916FEE0E926F936936
:101000000A0E946F0B0E956F890EE66E010EE66E5A
:101010000D0EE66E440EE66EDDEC0BF0E552E55289
:10102000E552E552010EDB504FE0510EE66E1CDA40
:10103000E5520101896F520EE66E16DAE5520101A2
:101040008A6F530EE66E10DAE55201018B6F540E73
:10105000E66E0ADAE55201018C6F550EE66E04DA8F
:10106000E55201018D6F560EE66EFED9E552010183
:101070008E6F570EE66EF8D9E55201018F6F580E4C
:10108000E66EF2D9E5520101906F590EE66EECD989
:10109000E5520101916F5A0EE66EE6D9E552010163
:1010A000926F5B0EE66EE0D9E5520101936F5C0E24
:1010B000E66EDAD9E5520101946F5D0EE66ED4D981
:1010C000E5520101956F0DD00D0EE66E890EE66EAC
:1010D000010EE66E510EE66EA1D9E552E552E552DB
:1010E000E552A90EE66E010EE66E0D0EE66E410E9D
:1010F000E66E58EC0BF0E552E552E552E55201017F
:10110000DF8F010EDB5020E0280EE66EADD9E552F0
:101110000101896F290EE66EA7D9E55201018A6F98
:101120002A0EE66EA1D9E55201018B6F890EE66E9B
:10113000010EE66E030EE66E280EE66E08EC0BF06E
:10114000E552E552E55203D0070EE66E28D8E55287
:101150000101DC9FDC9DDC9BDCC1E6FF0F0EE66E2F
:10116000E7EC0AF0E552E5520101886B0E0EE66EDF
:101170003DEC0BF0E552E00B08E0DCC1E6FF0F0EA2
:10118000E66EE7EC0AF0E552E552020EE15C02E29F
:10119000E16AE552E16EE552E7CFD9FF1200D9CFFF
:1011A000E6FFE1CFD9FF040EE1260101DC8FDC9DD3
:1011B000DC9BDCC1E6FF0F0EE66EE7EC0AF0E552C1
:1011C000E5520E0EE66E3DEC0BF0E552E00B8008AA
:1011D00008E0DCC1E6FF0F0EE66EE7EC0AF0E55230
:1011E000E5520101DD6B0101DE6B0101DF6B0101E5
:1011F000DD9FDD9D0101DE95DE83DE91DE9BDE89D4
:10120000DE970101DF95DF83DF910101DE8F0101B0
:10121000DF8FFE0EDB5015E0010A0EE0020A07E048
:10122000040A13E1C00E0101DD15070F0DD0C00E39
:101230000101DD15030F08D0C00E0101DD15010FFE
:1012400003D0C00E0101DD15DD6FDFC189F1DEC104
:101250008AF1DDC18BF1890EE66E010EE66E030E9A
:10126000E66E280EE66E08EC0BF0E552E552E5520C
:10127000E5520101DC9FDC9DDC9BDCC1E6FF0F0E2B
:10128000E66EE7EC0AF0E552E5520E0EE66E3DEC36
:101290000BF0E552E00B800808E0DCC1E6FF0F0E22
:1012A000E66EE7EC0AF0E552E552030EE66E890EB3
:1012B000E66E010EE66E280EE66EB0D8E552E552F7
:1012C000E552E552040EE15C02E2E16AE552E16EAC
:1012D000E552E7CFD9FF120080A805D00101DA6BF3
:1012E000010ED96F05D080B803D00101010EDA6F6D
:1012F0000101DA51D9154CE0D96BD72BD75104082D
:1013000001E2D76BD751040A37E0070A28E0010A47
:101310001AE0030A0CE0010A01E01200898A8D80BC
:101320008D828D840101019D0101D76B1200899A84
:101330008D808D828D840101018D0101D56B800E20
:10134000D66F010E17D0899A8D908D828D84010100
:10135000018D0101D56BC00ED66F020E0BD0899A9C
:101360008D908D928D840101018D0101D56BF00E60
:10137000D66F030ED76F1200899A8D908D928D943F
:101380000101018D0101D56BFA0ED66F040ED76FE6
:101390001200010101AD21D00101D32B000ED42395
:1013A000D351D4111AE1D5C1D3F1D6C1D4F1010181
:1013B000C951020A0DE0030A06E0010A0DE18C9E04
:1013C0008C8E010E03D08C9C8C8C020EC96F120087
:1013D0008C9A8C8AC96B1200C96B1200D9CFE6FFB8
:1013E000E1CFD9FFE652F250DF6EFE0EDB50A96E60
:1013F000FD0EDB50A86EA69EA69CA684F29E550EFE
:10140000A76EAA0EA76EA682A6B2FED7A694DF503C
:10141000F26EE552E552E7CFD9FF1200D9CFE6FFD1
:10142000E1CFD9FFE652DF6AFB0EDB50DF5C17E24B
:10143000DF50E76EFC0EDBCFE9FFFD0EDBCFEAFFEE
:10144000E750E926000EEA22EF50E66EFE0EDB5072
:10145000DF24E66EC3DFE552E552DF2AE5D7E55229
:10146000E552E7CFD9FF1200D9CFE6FFE1CFD9FF90
:10147000FE0EDB50A96EA69EA69CA680A850E55243
:10148000E7CFD9FF1200D9CFE6FFE1CFD9FFE6526F
:10149000DF6AFB0EDB50DF5C18E2FE0EDB50DF2460
:1014A000E66EE2DFE552E66EDF50E76EFC0EDBCF64
:1014B000E9FFFD0EDBCFEAFFE750E926000EEA2246
:1014C000E552E750EF6EDF2AE4D7E552E552E7CF69
:1014D000D9FF1200D9CFE6FFE1CFD9FF020EE126F6
:1014E000DF6A010EDB6AFD0EDB50F36E010EDBCF0F
:1014F000F4FFF350F45C0EE2FE0EDBCFE6FF010ECC
:10150000DB50E552E724E66EAFDFE552DF26010E41
:10151000DB2AE9D7DFCFE6FF800EE66E5FDFE5521C
:10152000E552020EE15C02E2E16AE552E16EE5524B
:10153000E7CFD9FF1200D9CFE6FFE1CFD9FF020EE6
:10154000E126DF6A010EDB6AFD0EDB50F36E010E51
:10155000DBCFF4FFF350F45C0EE2FE0EDBCFE6FFD0
:10156000010EDB50E552E724E66E7EDFE552DF2612
:10157000010EDB2AE9D7800EE66E76DFE552DF5CEE
:1015800002E1010E01D0000E026E020EE15C02E2E9
:10159000E16AE552E16E0250E552E7CFD9FF120051
:1015A0008A98C00EE66EFFEC12F0E5528A880001C0
:1015B000706B7051026E036AD890035004E6FF0E00
:1015C000025C000E035802E2702BF3D71200D9CF51
:1015D000E6FFE1CFD9FF8A98020EE66EFFEC12F02B
:1015E000E5520009F9E1FE0EDBCFE6FFFFEC12F059
:1015F000E5520009F8E1FD0EDBCFE6FFFFEC12F04B
:10160000E5520009F8E18A88E552E7CFD9FF1200D8
:10161000D9CFE6FFE1CFD9FFE6528A98020EE66EF7
:10162000FFEC12F0E5520009F9E1FE0EDBCFE6FF18
:10163000FFEC12F0E5520009F8E1DF6AFD0EDB5025
:10164000DF5C15E2DF50E76EFB0EDBCFE9FFFC0E3F
:10165000DBCFEAFFE750E926000EEA22EF50E66E04
:10166000FFEC12F0E5520009EDE1DF2AE7D78A88A6
:10167000E552E552E7CFD9FF1200D9CFE6FFE1CF1F
:10168000D9FFE6528A98030EE66EFFEC12F0E5529F
:10169000FE0EDBCFE6FFFFEC12F0E5524EEC13F04E
:1016A000DF6E8A88DF50E552E552E7CFD9FF12009E
:1016B000D9CFE6FFE1CFD9FFE6528A98030EE66E56
:1016C000FFEC12F0E5520009F9E1FE0EDBCFE6FF78
:1016D000FFEC12F0E5520009F8E1DF6AFD0EDB5085
:1016E000DF5C14E24EEC13F0E66EDF50E76EFB0EAB
:1016F000DBCFE9FFFC0EDBCFEAFFE750E926000E67
:10170000EA22E552E750EF6EDF2AE8D74EEC13F0FD
:10171000E66EDF50E76EFB0EDBCFE9FFFC0EDBCFA2
:10172000EAFFE750E926000EEA22E552E750EF6EA5
:101730008A88E552E552E7CFD9FF1200D9CFE6FFFC
:10174000E1CFD9FFE6528A98FE0EDBCFE6FFFFEC31
:1017500012F0E5520009F8E1DF6AFD0EDB50DF5CB4
:1017600014E24EEC13F0E66EDF50E76EFB0EDBCFBB
:10177000E9FFFC0EDBCFEAFFE750E926000EEA2284
:10178000E552E750EF6EDF2AE8D74EEC13F0E66E35
:10179000DF50E76EFB0EDBCFE9FFFC0EDBCFEAFF8D
:1017A000E750E926000EEA22E552E750EF6E8A88FC
:1017B000E552E552E7CFD9FF1200D9CFE6FFE1CFDE
:1017C000D9FF020EE126FE0EDB50FF082BE1A6D862
:1017D000DF6EDFB402D0400E21D0DFB802D0420E5F
:1017E0001DD0DFBC02D0440E19D0540EDF141AE015
:1017F000E66A300EE66EEBDEE552E5520001706BF4
:101800007051026E036AD890035004E6FF0E025C2A
:10181000000E035802E2702BF3D7400EF36EFE0E5B
:10182000F3CFDBFF8A98FE0EDBCFE6FFFFEC12F072
:10183000E5520009F8E1DF6AFD0EDB50DF5C15E2DE
:10184000DF50E76EFB0EDBCFE9FFFC0EDBCFEAFFDC
:10185000E750E926000EEA22EF50E66EFFEC12F0A8
:10186000E5520009EDE1DF2AE7D78A88FE0EDB505A
:10187000026E020EE15C02E2E16AE552E16E0250A4
:10188000E552E7CFD9FF1200D9CFE6FFE1CFD9FF6C
:10189000E65244D8DF6EFE0EDBA00FD0DFA40DD0E1
:1018A000010EE66E50D8E552E66A300EE66E8FDE27
:1018B000E552E55233D8040BFDE1FE0EDBA20FD05A
:1018C000DFA80DD0010EE66E3ED8E552E66A400E66
:1018D000E66E7DDEE552E55221D8100BFDE1FE0EED
:1018E000DBA40FD0DFAC0DD0010EE66E2CD8E55294
:1018F000E66A500EE66E6BDEE552E5520FD8400BFD
:10190000FDE18A98FE0EDBCFE6FFFFEC12F0E55218
:101910008A88E552E552E7CFD9FF1200D9CFE6FF1A
:10192000E1CFD9FFE6528A98A00EE66EFFEC12F0E6
:10193000E5524EEC13F0DF6E8A88DF50E552E55237
:10194000E7CFD9FF1200D9CFE6FFE1CFD9FFE652AA
:10195000FC0ECF6E170ECE6ECD80DF6AFE0EDB5012
:10196000DF5C09E29EA0FED79E90FC0ECF6E170EA4
:10197000CE6EDF2AF3D7CD90E552E552E7CFD9FFFF
:02198000120053
:0E19820004011051600BE842E842E842E842DE
:10199000E842000901E012001151070A4CE00B0A6D
:1019A0004AE0070A3BE0010A27E00B0A23E0020AAB
:1019B00021E0030A1DE0080A12E0010A0EE00F0A06
:1019C0000AE0030A01E012000101010EF56F0101B6
:1019D000040EFC6F12001CEF0DF073EF0DF001010F
:1019E000010EF56F0101FE0EF66F010EF76F10D0BC
:1019F0009AEF0DF0E7EF0DF00101010EF56F040114
:101A000014510101F66FF76BFF0EF627010EF72355
:101A10000101FD930101010EFA6F12000101010E97
:101A2000F56F04011451EA6AFF0FE96E010EEA2214
:101A300012C4EFFF12001200800E0401105D52E18B
:101A40001351030A30E0010A0CE0030A49E10101E5
:101A5000010EF56F0101DE0EF66F220EF76F120E0A
:101A60003CD00101010EF56F04011251F66EF76AC8
:101A7000D890F636F736B80EF626230EF722090070
:101A8000F5CFF6F10A00F5CFF7F1020E0101F76A82
:101A9000F625F66EF751F7220900F5CFFAF10A00A4
:101AA000F5CFFBF11DD00101010EF56F04011251BC
:101AB000F66EF76AD890F636F736BC0EF626230E89
:101AC000F7220900F5CFF6F10A00F5CFF7F1F6C1DC
:101AD000F6FFF7C1F7FF0800F5500101FA6FFB6B45
:101AE0000101FD8312000101010EF56F0F0EE66E7C
:101AF000710EE66E0F0EE66E5AEC11F0E552E552ED
:101B0000E552010EE66EFF0EE66E010EE66E5AEC31
:101B100011F0E552E552E55212C4FEF104011251F2
:101B200004E10101050EFC6F12000101060EFC6FBD
:101B30001BEF10F00401186B196B040110511F0BFF
:101B4000020A15E0030A0FE0010A33E10101010E68
:101B5000F56F80A402D0040118810101FDA129D0F4
:101B60000401188326D00101010EF56F22D0010176
:101B7000010EF56F040114510F0B080DF350036AA9
:101B8000000F026E040E03221451800B01E0010EBF
:101B9000040DF35001010224F86F000E0320F96FC9
:101BA000F8C1E9FFEA6EEF50040B03E00401010EF7
:101BB000186F0101F5050AE10101180EF66F040E18
:101BC000F76F0101FD930101020EFA6F120004018B
:101BD000120510E110511F0B00090CE10101010E6B
:101BE000F56F030E0401115D03E10101FD8102D0D7
:101BF0000101FD91040112513AE110511F0B02083D
:101C000036E114510F0B000932E00101010EF56FAE
:101C1000040114510F0B080DF350036A000F026EFC
:101C2000040E03221451800B01E0010E040DF35049
:101C300001010224F86F000E0320F96F030E040166
:101C4000115D07E1840EF8C1E9FFF9C1EAFFEF6E0B
:101C5000120014AF06D0F8C1E9FFF9C1EAFFEF6A3C
:101C60001200880EF8C1E9FFF9C1EAFFEF6E120019
:101C70006C500BE1040100513C0BE842E8420D08B6
:101C800002E14AEF0EF07FEF0EF0040E6C5C01E112
:101C900045D81200D9CFE6FFE1CFD9FFE6520101C6
:101CA000F46BF56BFA6BFB6BC1EC0CF0DF6ADF5089
:101CB000026E036A010E025C000E03581AE2010173
:101CC000F55117E1F76ADF34FE0BF736F66EC20EF8
:101CD000F626230EF7220900F5CF02F00800F5CF13
:101CE00003F004D003C0FAFF0250F96EFBDFDF2AD5
:101CF000DED7D9D8E552E552E7CFD9FF1200020E60
:101D00000101F45D09E192D8040100BD02D0C80EC2
:101D100001D0880E006F120098EF0FF0040E010141
:101D2000FC5D09E112C46EFF6E50000802E2050E70
:101D300001D0030EFC6F0101F40509E10AD804018A
:101D400004BD02D0C80E01D0880E046F120098EFB7
:101D50000FF0D9CFE6FFE1CFD9FF020EE126010156
:101D6000080EFA5D000EFB5905E2FAC1DEFFFBC169
:101D7000DDFF03D0080EDE6EDD6A040104930491DA
:101D8000010EDB500413DFCF05F4000EDB50010120
:101D9000FA5F010EDB50FB5B180EF86F040EF96F53
:101DA0000101FDA31DD0D9CFE9FFDACFEAFFEE5044
:101DB000ED1032E0F6C1F6FFF7C1F7FF0800F5506D
:101DC000F8C1E9FFF9C1EAFFEF6E0101F82B000E3F
:101DD000F923F62BF723DF06010EE5E2DB06E3D756
:101DE000D9CFE9FFDACFEAFFEE50ED1015E0F6C1EA
:101DF000E9FFF7C1EAFFEF50F8C1E9FFF9C1EAFFD7
:101E0000EF6E0101F82B000EF923F62BF723DF0606
:101E1000010EE6E2DB06E4D7020EE15C02E2E16AD3
:101E2000E552E16EE552E7CFD9FF1200D9CFE6FFC8
:101E3000E1CFD9FF020EE126030E04010015E76E83
:101E4000010EE7CFDBFF01C4DFFFDE500101FA27FF
:101E5000DD50FB23180EF66F040EF76FD9CFE9FFA4
:101E6000DACFEAFFEE50ED1014E0F6C1E9FFF7C15A
:101E7000EAFFEF50F8C1E9FFF9C1EAFFEF6EF82B76
:101E8000000EF923F62BF723DF06010EE7E2DB064F
:101E9000E5D7020EE15C02E2E16AE552E16EE5524D
:101EA000E7CFD9FF12006D980101F5510BE1040154
:101EB000080E016F100E026F040E036F840E006F88
:101EC000040123D0040110AF22D00101FA51040112
:101ED000165D0101FB510401175904E216C4FAF121
:101EE00017C4FBF136DF0101010EF46F0401080E87
:101EF000016F100E026F040E036F800E006F04015D
:101F0000180E066F040E076FC80E046F1200010151
:101F1000020EF46F0401056BC80E046F0401080E75
:101F2000016F180E026F040E036FC80E006F1200CF
:101F30000101F46B0401080E016F100E026F040E14
:0C1F4000036F880E006F0401046B120098
:041F4C00040110512B
:101F50001F0B010801E01200145101E01200060EEF
:101F6000115D28E11351230A23E0010A0FE0030A5F
:101F70001FE10101020EF56F0101FE0505E10101FE
:101F8000020EF66F230EF76F090E0FD00101020E3D
:101F9000F56F0101FE0505E101019B0EF66F230EB1
:101FA000F76F0101FE0504E11D0E0101FA6FFB6BE5
:101FB0000101FD8304011051600BE842E842E84250
:101FC000E842E842010801E0120011510B0A2BE03F
:101FD000080A1BE0090A13E0080A09E00B0A05E0F9
:101FE000080A01E0120019EF10F01AEF10F00101D9
:101FF000020EF56F0101670EF66F000E0DD00101A4
:10200000020EF56F13C467F012000101020EF56FA6
:102010000101680EF66F000EF76F0101FD930101DB
:10202000010EFA6F12000101020EF56F12C468F082
:102030001200120012000001696B1E0E716E040185
:10204000400E096F200E0A6F040E0B6F880E086F8A
:102050000401600E0E6F040E0F6F400E0C6F120025
:10206000D9CFE6FFE1CFD9FFE652FC0EDB504008A6
:1020700005E2400EF36EFC0EF3CFDBFFDF6AFC0ED1
:10208000DB50DF5C19E2DF50E76EFD0EDBCFE9FFCE
:10209000FE0EDBCFEAFFE750E926000EEA22EF5002
:1020A000E66EDF50EA6A600FE96E040EEA22E5523E
:1020B000E750EF6EDF2AE3D7FC0EDBCF0DF4400EC6
:1020C00004010C170C7D880E0C13E552E552E7CF86
:1020D000D9FF1200D9CFE6FFE1CFD9FF0001696B2C
:1020E000040108BF30D0FC0EDBCF02F00951D880CC
:1020F000025403E2FC0E09C4DBFF0001696BFC0E15
:10210000DB50695D19E26951EA6A200FE96E040E3D
:10211000EA22EF50E66E6951E76EFD0EDBCFE9FF74
:10212000FE0EDBCFEAFFE750E926000EEA22E55279
:10213000E750EF6E692BE3D70401400E096F0817D3
:10214000087D880E081300016951E552E7CFD9FFD9
:0221500012007B
:0E21520080A204D06DB604D00FD802D06DB6B6
:1021600013D80101FC0508E16DBA06D0686A696AF6
:1021700069806988020EFC6F12006D6A696A6D865B
:102180000101010EFC6F12006D6A696A0101FC6BAE
:102190001200C4EF10F00101FC5101E1120068507F
:1021A000040B04E06950040B01E041D86DB2120049
:1021B0006850010B04E06950010B01E059D86850E8
:1021C000100B04E06950100B01E024D86850400B5C
:1021D00004E06950400B01E040D86850200B04E057
:1021E0006950200B01E03BD86850020B04E06950B5
:1021F000020B01E03BD8030E0101FC5D01E212007D
:102200006850080B06E06950080B03E038EC0EF04C
:1022100068961200698468986D82A19AF290A08AEB
:10222000F2860300F2B007D8A09AF29612006D92DF
:102230006994689412000101FDA10ED0F8DF6D844D
:102240000001080E6A6F070E6B6F6A07000E6B5B6A
:102250006A516B11FAE16D941200689C120070A033
:1022600003D098EC0FF07090689A120068921200F8
:102270006A6A686A9F0E6B6E7B0E696E6E6A0F0EDD
:10228000E66E710EE66E0F0EE66E14D8E552E5525C
:10229000E552160E706E68A602D06896FCD76D984F
:1022A00098EC0FF00101FD910101FE6B0101030E9D
:1022B000FC6F1200D9CFE6FFE1CFD9FFFD0EDBCFD7
:1022C000E9FFFE0EDBCFEAFFFC0EDB5004E0EE6A16
:0E22D000FC0EDB06F9D7E552E7CFD9FF12006E
:0222DE001201EB
:1022E000000200000008D804700000000102000194
:1022F0000902290001010380FA0904000002030019
:102300000000092101000001221D00070581034092
:102310000001070501034000100403090434034DC4
:10232000006900630072006F00630068006900705C
:1023300000200054006500630068006E006F006CB0
:10234000006F0067007900200049006E0063002ED6
:102350000028034D004300500032003500310035A5
:1023600000200042005500530020004D004F004E59
:1023700000490054004F00520022034D004300501A
:1023800000320035003100350044004D002D004280
:10239000004D0020004800490044000600FF0901EC
:1023A000A10119012940150026FF007508954081FB
:1023B00002190129409102C0F022F02219231D23A5
:0423C00051234C1F3A
:0C23C4000F0EC1120001636BB3EC03F0BC
:1023D0000001646B656B666B616B626B640E615DC3
:1023E000000E62591DE2020E8014646F6551645D37
:1023F00001E1662B66510A0813E364C065F0320EF2
:10240000E66E37EC13F0E5528C90320EE66E37EC48
:1024100013F0E5528C800001612B000E6223DED7A1
:1024200065A303D0010E636F8C9007D80001635140
:1024300001E011D822EC00F0F9D7928292840001D9
:10244000635108E0140E6F6E0101FC6B0101FD6B1E
:102450000101FE6B1200A9EC10F06FBE02D0CBECB4
:0424600010F0120066
:0C2464002A0EF66E000EF76E000EF86EE9
:1024700001010900F550EF6F0900F550F06F03E11D
:10248000EF6701D03DD00900F550EA6F0900F55023
:10249000EB6F0900F550EC6F09000900F550E96E8B
:1024A0000900F550EA6E090009000900F550ED6FCA
:1024B0000900F550EE6F09000900F6CFF1F1F7CFF2
:1024C000F2F1F8CFF3F1EAC1F6FFEBC1F7FFECC18F
:1024D000F8FF0101ED5302E1EE5307E00900F5506A
:1024E000EE6EED07F8E2EE07F9D7F1C1F6FFF2C1A3
:1024F000F7FFF3C1F8FF0101EF07000EF05BBFD754
:022500001200C7
:0E250200D9CFE6FFDACFE6FFFA0EE3CFD9FF1E
:10251000FB0EE3CFDAFFFC0EE3CFE9FFFD0EE3CFC6
:10252000EAFFE9CFF3FFEACFF4FFE950D95CEA50C4
:10253000DA580EE3F80EE35003E1F90EE35024E01D
:10254000F80EE30602E2F90EE306DECFEEFFF2D765
:10255000F80EE350D926F90EE350DA22DD52F80ED8
:10256000E350E926F90EE350EA22ED52F80EE3506B
:1025700003E1F90EE35008E0F80EE30602E2F90E7B
:10258000E306DDCFEDFFF2D7FF0EE3CFDAFFE55232
:0A259000FF0EE3CFD9FFE552120061
:06259A00D9CFE6FFDACF05
:1025A000E6FFE1CFD9FFE2CFDAFF3F0EC716C66ADA
:1025B000FD0EDB50C612FB0EDB50C712FC0EDB50CB
:1025C000030A09E0010A04E0020A06E1C78C04D00C
:1025D000C78CC68801D0C688FD0EDB50050A03E013
:1025E000010A03E1928A938201D093929380949E90
:0E25F000C68AE552E5CFDAFFE7CFD9FF120029
:0225FE00D9CF33
:10260000E6FFDACFE6FFE1CFD9FFE2CFDAFFE6520D
:10261000C950DF6E9E96C69EFD0EDB50C96EC6AEDB
:1026200002D0FF0E03D09EA6FED7000EE552E55263
:0A263000E5CFDAFFE7CFD9FF120073
:06263A00DACFE4FFE652D6
:10264000F092F28EE552E5CFDAFF1100D8CFE4FF29
:10265000E0CFE4FFE46EDACFE4FFE652E552E5CFE7
:0E266000DAFFE550E5CFE0FFE5CFD8FF100030
:02266E00FF0E5D
:10267000E350056EEF0E01D0F30EE76EE72E3EEF4E
:1026800013F00C0E046EE76AE72E44EF13F0042EED
:0C26900043EF13F0052E3CEF13F0120096
:04269C00D9CFE6FFAD
:1026A000DACFE6FFE1CFD9FFE2CFDAFFE652C95039
:1026B000DF6E9E96C96A9EA6FED7C950E552E552C6
:0A26C000E5CFDAFFE7CFD9FF1200E3
:0626CA00000EF36E00EEAD
:1026D00000F0080E01D81200EA6002D0EE6AFCD7C2
:0A26E000F350E9601200EE6AFCD727
:0626EA0013EE00F023EEE8
:1026F00000F0F86A019C32EC12F087EC13F0E2EC87
:0627000011F0FBD71200EE
:08270600FCFCFC0004040400CB
:02270E001200B7
:0227100041FA8C
:0E271200322E3130000001F000000000800087
:03272000FF0100B6
:020000040030CA
:0100000024DB
:010001000EF0
:0100020036C7
:010003001EDE
:010005008179
:01000600A158
:010008000FE8
:01000900C036
:01000A000FE6
:01000B00E014
:01000C000FE4
:01000D0040B2
:00000001FF
